{
  "_format": "hh-sol-artifact-1",
  "contractName": "ENSRenewal",
  "sourceName": "contracts/ENSRenewal.sol",
  "abi": [
    {
      "inputs": [
        {
          "internalType": "address",
          "name": "_baseRegistrarAddress",
          "type": "address"
        }
      ],
      "stateMutability": "nonpayable",
      "type": "constructor"
    },
    {
      "inputs": [
        {
          "internalType": "uint256",
          "name": "_label",
          "type": "uint256"
        }
      ],
      "name": "checkAvailability",
      "outputs": [
        {
          "internalType": "bool",
          "name": "",
          "type": "bool"
        }
      ],
      "stateMutability": "view",
      "type": "function"
    },
    {
      "inputs": [
        {
          "internalType": "bytes",
          "name": "",
          "type": "bytes"
        }
      ],
      "name": "checkUpkeep",
      "outputs": [
        {
          "internalType": "bool",
          "name": "upkeepNeeded",
          "type": "bool"
        },
        {
          "internalType": "bytes",
          "name": "",
          "type": "bytes"
        }
      ],
      "stateMutability": "nonpayable",
      "type": "function"
    },
    {
      "inputs": [
        {
          "internalType": "bytes",
          "name": "",
          "type": "bytes"
        }
      ],
      "name": "performUpkeep",
      "outputs": [],
      "stateMutability": "nonpayable",
      "type": "function"
    }
  ],
  "bytecode": "0x608060405234801561001057600080fd5b506040516105773803806105778339818101604052810190610032919061008d565b806000806101000a81548173ffffffffffffffffffffffffffffffffffffffff021916908373ffffffffffffffffffffffffffffffffffffffff16021790555050610108565b600081519050610087816100f1565b92915050565b6000602082840312156100a3576100a26100ec565b5b60006100b184828501610078565b91505092915050565b60006100c5826100cc565b9050919050565b600073ffffffffffffffffffffffffffffffffffffffff82169050919050565b600080fd5b6100fa816100ba565b811461010557600080fd5b50565b610460806101176000396000f3fe608060405234801561001057600080fd5b50600436106100415760003560e01c80634585e33b146100465780636e04ff0d14610062578063753999ef14610093575b600080fd5b610060600480360381019061005b9190610236565b6100c3565b005b61007c60048036038101906100779190610236565b6100c7565b60405161008a929190610322565b60405180910390f35b6100ad60048036038101906100a89190610283565b6100d6565b6040516100ba9190610307565b60405180910390f35b5050565b60006060600091509250929050565b60008060009054906101000a900473ffffffffffffffffffffffffffffffffffffffff1673ffffffffffffffffffffffffffffffffffffffff166396e494e8836040518263ffffffff1660e01b81526004016101329190610352565b60206040518083038186803b15801561014a57600080fd5b505afa15801561015e573d6000803e3d6000fd5b505050506040513d601f19601f820116820180604052508101906101829190610209565b9050919050565b600081519050610198816103fc565b92915050565b60008083601f8401126101b4576101b36103d7565b5b8235905067ffffffffffffffff8111156101d1576101d06103d2565b5b6020830191508360018202830111156101ed576101ec6103dc565b5b9250929050565b60008135905061020381610413565b92915050565b60006020828403121561021f5761021e6103e6565b5b600061022d84828501610189565b91505092915050565b6000806020838503121561024d5761024c6103e6565b5b600083013567ffffffffffffffff81111561026b5761026a6103e1565b5b6102778582860161019e565b92509250509250929050565b600060208284031215610299576102986103e6565b5b60006102a7848285016101f4565b91505092915050565b6102b981610389565b82525050565b60006102ca8261036d565b6102d48185610378565b93506102e481856020860161039f565b6102ed816103eb565b840191505092915050565b61030181610395565b82525050565b600060208201905061031c60008301846102b0565b92915050565b600060408201905061033760008301856102b0565b818103602083015261034981846102bf565b90509392505050565b600060208201905061036760008301846102f8565b92915050565b600081519050919050565b600082825260208201905092915050565b60008115159050919050565b6000819050919050565b60005b838110156103bd5780820151818401526020810190506103a2565b838111156103cc576000848401525b50505050565b600080fd5b600080fd5b600080fd5b600080fd5b600080fd5b6000601f19601f8301169050919050565b61040581610389565b811461041057600080fd5b50565b61041c81610395565b811461042757600080fd5b5056fea26469706673582212204fc202c4a29a0cbe8d781064356b88685e78639ff6b84abb5d0f87d86e2213d664736f6c63430008070033",
  "linkReferences": {},
  "deployedLinkReferences": {}
}