{
  "_format": "hh-sol-artifact-1",
  "contractName": "ENSRenewal",
  "sourceName": "contracts/ENSRenewal.sol",
  "abi": [
    {
      "inputs": [
        {
          "internalType": "uint256",
          "name": "_label",
          "type": "uint256"
        }
      ],
      "name": "checkAvailability",
      "outputs": [
        {
          "internalType": "bool",
          "name": "",
          "type": "bool"
        }
      ],
      "stateMutability": "view",
      "type": "function"
    },
    {
      "inputs": [
        {
          "internalType": "bytes",
          "name": "",
          "type": "bytes"
        }
      ],
      "name": "checkUpkeep",
      "outputs": [
        {
          "internalType": "bool",
          "name": "upkeepNeeded",
          "type": "bool"
        },
        {
          "internalType": "bytes",
          "name": "",
          "type": "bytes"
        }
      ],
      "stateMutability": "nonpayable",
      "type": "function"
    },
    {
      "inputs": [
        {
          "internalType": "bytes",
          "name": "",
          "type": "bytes"
        }
      ],
      "name": "performUpkeep",
      "outputs": [],
      "stateMutability": "nonpayable",
      "type": "function"
    }
  ],
  "bytecode": "0x60806040527357f1887a8bf19b14fc0df6fd9b2acc9af147ea856000806101000a81548173ffffffffffffffffffffffffffffffffffffffff021916908373ffffffffffffffffffffffffffffffffffffffff16021790555034801561006457600080fd5b50610460806100746000396000f3fe608060405234801561001057600080fd5b50600436106100415760003560e01c80634585e33b146100465780636e04ff0d14610062578063753999ef14610093575b600080fd5b610060600480360381019061005b9190610236565b6100c3565b005b61007c60048036038101906100779190610236565b6100c7565b60405161008a929190610322565b60405180910390f35b6100ad60048036038101906100a89190610283565b6100d6565b6040516100ba9190610307565b60405180910390f35b5050565b60006060600091509250929050565b60008060009054906101000a900473ffffffffffffffffffffffffffffffffffffffff1673ffffffffffffffffffffffffffffffffffffffff166396e494e8836040518263ffffffff1660e01b81526004016101329190610352565b60206040518083038186803b15801561014a57600080fd5b505afa15801561015e573d6000803e3d6000fd5b505050506040513d601f19601f820116820180604052508101906101829190610209565b9050919050565b600081519050610198816103fc565b92915050565b60008083601f8401126101b4576101b36103d7565b5b8235905067ffffffffffffffff8111156101d1576101d06103d2565b5b6020830191508360018202830111156101ed576101ec6103dc565b5b9250929050565b60008135905061020381610413565b92915050565b60006020828403121561021f5761021e6103e6565b5b600061022d84828501610189565b91505092915050565b6000806020838503121561024d5761024c6103e6565b5b600083013567ffffffffffffffff81111561026b5761026a6103e1565b5b6102778582860161019e565b92509250509250929050565b600060208284031215610299576102986103e6565b5b60006102a7848285016101f4565b91505092915050565b6102b981610389565b82525050565b60006102ca8261036d565b6102d48185610378565b93506102e481856020860161039f565b6102ed816103eb565b840191505092915050565b61030181610395565b82525050565b600060208201905061031c60008301846102b0565b92915050565b600060408201905061033760008301856102b0565b818103602083015261034981846102bf565b90509392505050565b600060208201905061036760008301846102f8565b92915050565b600081519050919050565b600082825260208201905092915050565b60008115159050919050565b6000819050919050565b60005b838110156103bd5780820151818401526020810190506103a2565b838111156103cc576000848401525b50505050565b600080fd5b600080fd5b600080fd5b600080fd5b600080fd5b6000601f19601f8301169050919050565b61040581610389565b811461041057600080fd5b50565b61041c81610395565b811461042757600080fd5b5056fea2646970667358221220c8997ac50b1b5e266e4f872e63437bf425b02ea35e4612a0bd970fa6b00c258f64736f6c63430008070033",
  "linkReferences": {},
  "deployedLinkReferences": {}
}