{
  "_format": "hh-sol-artifact-1",
  "contractName": "ENSRenewal",
  "sourceName": "contracts/ENSRenewal.sol",
  "abi": [
    {
      "inputs": [],
      "stateMutability": "nonpayable",
      "type": "constructor"
    },
    {
      "inputs": [
        {
          "internalType": "bytes",
          "name": "",
          "type": "bytes"
        }
      ],
      "name": "checkUpkeep",
      "outputs": [
        {
          "internalType": "bool",
          "name": "upkeepNeeded",
          "type": "bool"
        },
        {
          "internalType": "bytes",
          "name": "",
          "type": "bytes"
        }
      ],
      "stateMutability": "nonpayable",
      "type": "function"
    },
    {
      "inputs": [
        {
          "internalType": "bytes",
          "name": "",
          "type": "bytes"
        }
      ],
      "name": "performUpkeep",
      "outputs": [],
      "stateMutability": "nonpayable",
      "type": "function"
    }
  ],
  "bytecode": "0x608060405234801561001057600080fd5b50610271806100206000396000f3fe608060405234801561001057600080fd5b50600436106100365760003560e01c80634585e33b1461003b5780636e04ff0d14610057575b600080fd5b610055600480360381019061005091906100f1565b610088565b005b610071600480360381019061006c91906100f1565b61008c565b60405161007f929190610186565b60405180910390f35b5050565b60006060600091509250929050565b60008083601f8401126100b1576100b0610216565b5b8235905067ffffffffffffffff8111156100ce576100cd610211565b5b6020830191508360018202830111156100ea576100e961021b565b5b9250929050565b6000806020838503121561010857610107610225565b5b600083013567ffffffffffffffff81111561012657610125610220565b5b6101328582860161009b565b92509250509250929050565b610147816101d2565b82525050565b6000610158826101b6565b61016281856101c1565b93506101728185602086016101de565b61017b8161022a565b840191505092915050565b600060408201905061019b600083018561013e565b81810360208301526101ad818461014d565b90509392505050565b600081519050919050565b600082825260208201905092915050565b60008115159050919050565b60005b838110156101fc5780820151818401526020810190506101e1565b8381111561020b576000848401525b50505050565b600080fd5b600080fd5b600080fd5b600080fd5b600080fd5b6000601f19601f830116905091905056fea26469706673582212209c66565bdec9ccb67bf7edf259c7ee29fe9adfd6af3725f2f04f8d2afbf88dc364736f6c63430008070033",
  "linkReferences": {},
  "deployedLinkReferences": {}
}